:100000000C9434000C9451000C9451000C94510049
:100010000C9451000C9451000C9451000C9451001C
:100020000C9451000C9451000C9451000C9451000C
:100030000C9451000C9451000C9451000C945100FC
:100040000C9451000C9451000C9451000C945100EC
:100050000C9451000C9451000C9451000C945100DC
:100060000C9451000C94510011241FBECFEFD8E026
:10007000DEBFCDBF11E0A0E0B1E0E6EFF4E102C0E9
:1000800005900D92A23DB107D9F721E0A2EDB1E0B4
:1000900001C01D92A43EB207E1F70E94D0040C9467
:1000A000790A0C940000E0ECF0E0908195FFFDCF20
:1000B0008093C60080E090E00895E0ECF0E080815D
:1000C0008823ECF78091C60090E0089582E0809349
:1000D000C00088E18093C10086E08093C2008CE07C
:1000E0008093C4001092C500EEEDF1E08EE091E047
:1000F00093838283918380830895CF93DF93CEEDA2
:10010000D1E06A817B818EEF90E00E94AE076A8128
:100110007B8181E090E00E94AE07DF91CF9108954E
:100120001F93CF93DF93182FCEEDD1E06A817B81AF
:100130008EEF90E00E94AE076A817B81812F90E074
:100140000E94AE07DF91CF911F91089589B18695E6
:100150008695869591E08927817090E0089589B110
:1001600082958F7091E08927817090E0089583B126
:10017000869591E08927817090E0089583B18695F6
:10018000869591E08927817090E0089518161906E8
:100190006CF420E030E0E9EFF0E03197F1F700C0D7
:1001A00000002F5F3F4F28173907A9F708956F9276
:1001B0007F928F929F92AF92BF92CF92DF92EF92F7
:1001C000FF920F931F93CF93DF930F2EF4E6CF2E62
:1001D000D12CF02D0F2EFFE0AF2EB12CF02D0F2ED5
:1001E000F8EE6F2EF3E07F2EF02D0F2EFCE1EF2EB8
:1001F000F1E0FF2EF02D01E311E0CEE3D1E00F2E70
:10020000F0E28F2EFEE49F2EF02D0E94B7000197A2
:1002100079F40E94B7000197E1F388EE93E09093A0
:100220000D0180930C018091080190910901FAC0A1
:100230000E94A600019709F072C080910801909178
:100240000901C29680322EE492072CF490930901A2
:100250008093080104C09092090180920801809166
:10026000D2019091D301992354F10E947D0080E83E
:100270000E949000FF92EF920E94E60780EC0E949D
:100280009000809109018F93809108018F931F93B3
:100290000F930E94E60784ED0E949000DF93CF93B6
:1002A0000E94E6071092D3011092D2018DB79EB73B
:1002B00008960FB6F8949EBF0FBE8DBF05C001967D
:1002C0009093D3018093D201809102019091030118
:1002D0000E94C6006091020170910301072E000C7C
:1002E000880B990B0E948C0620E030E040EE50E431
:1002F0000E941D0720E030E040E251E40E94E20548
:100300000E945406603171052CF0709303016093D4
:1003100002014EC0B0920301A092020149C0D092E6
:100320000301C09202010E94AF000197E9F580919C
:10033000080190910901C297893E23E092072CF0B1
:10034000909309018093080104C0709209016092A2
:10035000080180910001909101010E94C600609106
:10036000000170910101072E000C880B990B0E946F
:100370008C0620E030E040EE50E40E941D0720E0B3
:1003800030E040E251E40E94E2050E9454066031F0
:1003900071052CF0709301016093000109C0B092C7
:1003A0000101A092000104C0D0920101C09200019D
:1003B0008091D2019091D301992354F10E947D0044
:1003C00080E80E949000FF92EF920E94E60780EC86
:1003D0000E949000809109018F93809108018F9372
:1003E0001F930F930E94E60784ED0E949000DF9315
:1003F000CF930E94E6071092D3011092D2018DB7DD
:100400009EB708960FB6F8949EBF0FBE8DBF05C06D
:1004100001969093D3018093D20182E390E00E94F1
:10042000C600F3CEDF91CF911F910F91FF90EF9017
:10043000DF90CF90BF90AF909F908F907F906F9004
:100440000895AF92BF92CF92DF92EF92FF920F93F7
:100450001F93CF93DF930F2EF4E6CF2ED12CF02DE8
:100460000F2EFFE0AF2EB12CF02D0F2EF3E5EF2E67
:10047000F1E0FF2EF02D01E311E0CEE3D1E00E9488
:10048000B700019749F40E94B7000197E1F380910A
:100490000C0190910D010CC10E94A600019709F07A
:1004A00074C080910C0190910D01C29690930D0142
:1004B00080930C0120910801309109018217930764
:1004C00024F030930D0120930C018091D201909182
:1004D000D301992354F10E947D0080E80E9490008E
:1004E000FF92EF920E94E60780EC0E9490008091BC
:1004F0000D018F9380910C018F931F930F930E9496
:10050000E60784ED0E949000DF93CF930E94E607F8
:100510001092D3011092D2018DB79EB708960FB6F4
:10052000F8949EBF0FBE8DBF05C001969093D30176
:100530008093D20180910201909103010E94C60034
:100540006091020170910301072E000C880B990B3A
:100550000E948C0620E030E040EE50E40E941D072F
:1005600020E030E040E251E40E94E2050E9454069F
:10057000603171052CF070930301609302014DC04E
:10058000B0920301A092020148C0D0920301C09230
:1005900002010E94AF000197E1F580910C0190915A
:1005A0000D01C297181619062CF490930D01809333
:1005B0000C0104C010920D0110920C0180910001F9
:1005C000909101010E94C6006091000170910101AB
:1005D000072E000C880B990B0E948C0620E030E05F
:1005E00040EE50E40E941D0720E030E040E251E47C
:1005F0000E94E2050E945406603171052CF0709350
:1006000001016093000109C0B0920101A0920001B4
:1006100004C0D0920101C09200010E94BE00019767
:1006200069F40E94BE000197E1F381E090E09093AD
:100630000501809304018FEF9FEF3AC08091D201B2
:100640009091D301992354F10E947D0080E80E948B
:100650009000FF92EF920E94E60780EC0E949000CB
:1006600080910D018F9380910C018F931F930F93B5
:100670000E94E60784ED0E949000DF93CF930E94D2
:10068000E6071092D3011092D2018DB79EB708965B
:100690000FB6F8949EBF0FBE8DBF05C00196909314
:1006A000D3018093D20182E390E00E94C600E7CE9E
:1006B000DF91CF911F910F91FF90EF90DF90CF903E
:1006C000BF90AF900895AF92BF92CF92DF92EF921A
:1006D000FF920F931F93CF93DF930F2EF4E6CF2E4D
:1006E000D12CF02D0F2EFFE0AF2EB12CF02D0F2EC0
:1006F000F5E6EF2EF1E0FF2EF02D07E711E0CEE357
:10070000D1E00E94B700019749F40E94B700019719
:10071000E1F380910A0190910B0103C10E94A600B0
:10072000019709F071C080910A0190910B01019627
:10073000843691052CF490930B0180930A0104C038
:10074000D0920B01C0920A018091D2019091D30105
:10075000992354F10E947D0080E80E949000FF924E
:10076000EF920E94E60780EC0E94900080910B01BE
:100770008F9380910A018F931F930F930E94E60736
:1007800084ED0E949000DF93CF930E94E6071092C1
:10079000D3011092D2018DB79EB708960FB6F89488
:1007A0009EBF0FBE8DBF05C001969093D30180936D
:1007B000D20180910201909103010E94C6006091D4
:1007C000020170910301072E000C880B990B0E9407
:1007D0008C0620E030E040EE50E40E941D0720E04F
:1007E00030E040E251E40E94E2050E94540660318C
:1007F00071052CF070930301609302014DC0B0921B
:100800000301A092020148C0D0920301C0920201EC
:100810000E94AF000197E1F580910A0190910B01D0
:100820000197181619062CF490930B0180930A0176
:1008300004C010920B0110920A0180910001909166
:1008400001010E94C6006091000170910101072E14
:10085000000C880B990B0E948C0620E030E040EEE3
:1008600050E40E941D0720E030E040E251E40E9485
:10087000E2050E945406603171052CF0709301016D
:100880006093000109C0B0920101A092000104C070
:10089000D0920101C09200010E94BE00019739F47C
:1008A0000E94BE000197E1F38FEF9FEF3AC0809165
:1008B000D2019091D301992354F10E947D0080E8E8
:1008C0000E949000FF92EF920E94E60780EC0E9447
:1008D000900080910B018F9380910A018F931F9359
:1008E0000F930E94E60784ED0E949000DF93CF9360
:1008F0000E94E6071092D3011092D2018DB79EB7E5
:1009000008960FB6F8949EBF0FBE8DBF05C0019626
:100910009093D3018093D20182E390E00E94C600BD
:10092000F0CEDF91CF911F910F91FF90EF90DF906C
:10093000CF90BF90AF90089520910A0130910B01A4
:100940004BEF4203B001439F700D11246C507E4F5A
:10095000072E000C880B990B0E948C060895CF92ED
:10096000DF92EF92FF920E949C046B017C018091C8
:10097000DC019091DD0120910C0130910D01821B71
:10098000930BBC01990F880B990B0E948C06A70151
:1009900096010E94E205FF90EF90DF90CF900895BE
:1009A0000E94660083E294EF0197F1F700C0000017
:1009B0000E947D0086E087B988B98CED8AB98BB931
:1009C00087E085B984B9C9E1D0E00F2EF7E8EF2EB2
:1009D000F1E0FF2EF02D0BE911E00E947D0080EC8C
:1009E0000E949000FF92EF920E94E60784E90E9425
:1009F00090001F930F930E94E60788EC90E00E94FE
:100A0000C60021970F900F900F900F9031F701E0E3
:100A100010E00F2EF3E0EF2EF12CF02D0F2EFEEB59
:100A2000CF2EF1E0DF2EF02DCCEAD1E06894AA249D
:100A3000A1F8B12C8091060190910701019709F06E
:100A400043C080910401909105018130910559F4D2
:100A50000E94D7009093090180930801B09205018C
:100A6000A0920401E7CF82309105A1F40E942102F7
:100A70008F3F2FEF920729F4109305010093040193
:100A8000D9CFF0920501E092040190930D0180937B
:100A90000C01D0CF039771F60E9463038F3F2FEFB5
:100AA000920729F4B0920501A0920401C3CF1092DD
:100AB0000701109206011093050100930401909321
:100AC0000B0180930A01B6CF8091D2019091D3019E
:100AD000992344F10E947D0080EC0E949000809157
:100AE000DB018F938091DA018F938091D9018F93ED
:100AF0008091D8018F938091DD018F938091DC01EB
:100B00008F93DF93CF930E94E6071092D301109248
:100B1000D2018DB79EB708960FB6F8949EBF0FBE50
:100B20008DBF05C001969093D3018093D2010E949E
:100B3000BE00019761F40E94BE000197E1F310939B
:100B4000070100930601F0920501E0920401209153
:100B5000DC013091DD0180910C0190910D0128178D
:100B600039075CF12AE939E949E950E46091D80193
:100B70007091D9018091DA019091DB010E941807F0
:100B80001816DCF40E94AF04962E872E782E692E5C
:100B900084E90E9490006F927F928F929F92DF92E1
:100BA000CF920E94E60782E390E00E94C6000F9079
:100BB0000F900F900F900F900F9082E390E00E94A3
:100BC000C60038CF0E94F6050C94DE060E94D706B8
:100BD00058F00E94D00640F029F45F3F29F00C94B1
:100BE000C70651110C9412070C94CD060E94EF0613
:100BF00068F39923B1F3552391F3951B550BBB274C
:100C0000AA2762177307840738F09F5F5F4F220F90
:100C1000331F441FAA1FA9F335D00E2E3AF0E0E887
:100C200032D091505040E695001CCAF72BD0FE2FD1
:100C300029D0660F771F881FBB1F26173707480765
:100C4000AB07B0E809F0BB0B802DBF01FF2793581D
:100C50005F4F3AF09E3F510578F00C94C7060C9414
:100C600012075F3FE4F3983ED4F386957795679536
:100C7000B795F7959F5FC9F7880F911D9695879552
:100C800097F90895E1E0660F771F881FBB1F621771
:100C900073078407BA0720F0621B730B840BBA0B2F
:100CA000EE1F88F7E09508950E945B066894B111E5
:100CB0000C94120708950E94F70688F09F5798F049
:100CC000B92F9927B751B0F0E1F0660F771F881F51
:100CD000991F1AF0BA95C9F714C0B13091F00E946B
:100CE0001107B1E008950C941107672F782F88271A
:100CF000B85F39F0B93FCCF3869577956795B39592
:100D0000D9F73EF490958095709561957F4F8F4F00
:100D10009F4F0895E89409C097FB3EF49095809505
:100D2000709561957F4F8F4F9F4F9923A9F0F92FB1
:100D300096E9BB279395F695879577956795B7952F
:100D4000F111F8CFFAF4BB0F11F460FF1BC06F5F15
:100D50007F4F8F4F9F4F16C0882311F096E911C027
:100D6000772321F09EE8872F762F05C0662371F048
:100D700096E8862F70E060E02AF09A95660F771F5C
:100D8000881FDAF7880F9695879597F9089597F950
:100D90009F6780E870E060E008959FEF80EC089521
:100DA00000240A941616170618060906089500244A
:100DB0000A9412161306140605060895092E0394C4
:100DC000000C11F4882352F0BB0F40F4BF2B11F438
:100DD00060FF04C06F5F7F4F8F4F9F4F089557FD97
:100DE0009058440F551F59F05F3F71F04795880F99
:100DF00097FB991F61F09F3F79F087950895121630
:100E000013061406551FF2CF4695F1DF08C01616DB
:100E100017061806991FF1CF86957105610508948C
:100E20000895E894BB2766277727CB0197F90895A3
:100E30000E948A0708F48FEF08950E9430070C94EF
:100E4000DE060E94D00638F00E94D70620F09523D7
:100E500011F00C94C7060C94CD0611240C941207C3
:100E60000E94EF0670F3959FC1F3950F50E0551F58
:100E7000629FF001729FBB27F00DB11D639FAA27EF
:100E8000F00DB11DAA1F649F6627B00DA11D661F3E
:100E9000829F2227B00DA11D621F739FB00DA11D5F
:100EA000621F839FA00D611D221F749F3327A00D19
:100EB000611D231F849F600D211D822F762F6A2FB5
:100EC00011249F5750409AF0F1F088234AF0EE0F1A
:100ED000FF1FBB1F661F771F881F91505040A9F747
:100EE0009E3F510580F00C94C7060C9412075F3F9B
:100EF000E4F3983ED4F3869577956795B795F79583
:100F0000E7959F5FC1F7FE2B880F911D96958795FA
:100F100097F90895990F0008550FAA0BE0E8FEEF26
:100F200016161706E807F907C0F012161306E407AD
:100F3000F50798F0621B730B840B950B39F40A26A6
:100F400061F0232B242B252B21F408950A2609F484
:100F5000A140A6958FEF811D811D08950F931F93CA
:100F6000CF93DF93FB01238121FD03C08FEF9FEF20
:100F700028C022FF16C0468157812481358142173F
:100F8000530744F4A081B1819D012F5F3F4F31830E
:100F900020838C93268137812F5F3F4F37832683B1
:100FA00010C0EB01092F182F0084F185E02D099561
:100FB000892BE1F68E819F8101969F838E83812FFD
:100FC000902FDF91CF911F910F910895A0E0B0E095
:100FD000ECEEF7E00C94520AAE014B5F5F4FFA0162
:100FE00061917191AF018091E0019091E1010E94C6
:100FF000FC07E2E00C946E0AACE0B0E0E2E0F8E05E
:101000000C94420A7C016B018A01FC011782168252
:10101000838181FFBDC1CE0101964C01F70193810F
:10102000F60193FD859193FF81916F01882309F467
:10103000ABC1853239F493FD859193FF81916F01A6
:10104000853229F4B70190E00E94AE07E7CF512C1A
:10105000312C20E02032A0F48B3269F030F4803261
:1010600059F0833269F420612CC08D3239F080331D
:1010700039F4216026C02260246023C0286021C08A
:1010800027FD27C030ED380F3A3078F426FF06C030
:10109000FAE05F9E300D1124532E13C08AE0389E73
:1010A000300D1124332E20620CC08E3221F426FD27
:1010B0006BC1206406C08C3611F4206802C08836EB
:1010C00041F4F60193FD859193FF81916F018111A8
:1010D000C1CF982F9F7D9554933028F40C5F1F4FFC
:1010E000FFE3F9830DC0833631F0833771F0833528
:1010F00009F05BC022C0F801808189830E5F1F4F19
:1011000044244394512C540115C03801F2E06F0E71
:10111000711CF801A080B18026FF03C0652D70E02E
:1011200002C06FEF7FEFC5012C870E94D9092C0107
:1011300083012C852F77222E17C03801F2E06F0E25
:10114000711CF801A080B18026FF03C0652D70E0FE
:1011500002C06FEF7FEFC5012C870E94CE092C01E2
:101160002C852068222E830123FC1BC0832D90E058
:1011700048165906B0F4B70180E290E00E94AE072D
:101180003A94F4CFF50127FC859127FE81915F0108
:10119000B70190E00E94AE0731103A94F1E04F1A87
:1011A00051084114510471F7E5C0843611F08936B5
:1011B00039F5F80127FF07C0608171818281938131
:1011C0000C5F1F4F08C060817181072E000C880BD7
:1011D000990B0E5F1F4F2F76722E97FF09C09095C7
:1011E0008095709561957F4F8F4F9F4F2068722E2D
:1011F0002AE030E0A4010E94E409A82EA81844C007
:10120000853729F42F7EB22E2AE030E025C0F22F58
:10121000F97FBF2E8F36C1F018F4883579F0B4C04D
:10122000803719F0883721F0AFC02F2F2061B22E00
:10123000B4FE0DC08B2D8460B82E09C024FF0AC0F7
:101240009F2F9660B92E06C028E030E005C020E14F
:1012500030E002C020E132E0F801B7FE07C0608153
:101260007181828193810C5F1F4F06C06081718103
:1012700080E090E00E5F1F4FA4010E94E409A82EB9
:10128000A818FB2DFF777F2E76FE0BC0372D3E7FF3
:10129000A51450F474FE0AC072FC08C0372D3E7EBF
:1012A00005C0BA2C372D03C0BA2C01C0B52C34FFB1
:1012B0000DC0FE01EA0DF11D8081803311F4397EED
:1012C00009C032FF06C0B394B39404C0832F86785C
:1012D00009F0B39433FD13C030FF06C05A2CB31489
:1012E00018F4530C5B18B32CB31468F4B70180E204
:1012F00090E03C870E94AE07B3943C85F5CFB314D1
:1013000010F43B1801C0312C34FF12C0B70180E348
:1013100090E03C870E94AE073C8532FF17C031FD4C
:1013200003C088E790E002C088E590E0B7010CC0F8
:10133000832F867859F031FF02C08BE201C080E232
:1013400037FD8DE2B70190E00E94AE07A51438F496
:10135000B70180E390E00E94AE075A94F7CFAA94B9
:10136000F401EA0DF11D8081B70190E00E94AE0703
:10137000A110F5CF332009F451CEB70180E290E0FF
:101380000E94AE073A94F6CFF7018681978102C09A
:101390008FEF9FEF2C96E2E10C945E0AFC01059022
:1013A000615070400110D8F7809590958E0F9F1F67
:1013B0000895FC016150704001900110D8F78095AC
:1013C00090958E0F9F1F0895FA01AA27283051F19A
:1013D000203181F1E8946F936E7F6E5F7F4F8F4F66
:1013E0009F4FAF4FB1E03ED0B4E03CD0670F781FC5
:1013F000891F9A1FA11D680F791F8A1F911DA11DAA
:101400006A0F711D811D911DA11D20D009F46894E2
:101410003F912AE0269F11243019305D3193DEF68A
:10142000CF010895462F4770405D4193B3E00FD040
:10143000C9F7F6CF462F4F70405D4A3318F0495D2B
:1014400031FD4052419302D0A9F7EACFB4E0A6950E
:101450009795879577956795BA95C9F70097610530
:10146000710508959B01AC010A2E06945795479586
:1014700037952795BA95C9F7620F731F841F951F7B
:10148000A01D08952F923F924F925F926F927F928C
:101490008F929F92AF92BF92CF92DF92EF92FF9284
:1014A0000F931F93CF93DF93CDB7DEB7CA1BDB0B30
:1014B0000FB6F894DEBF0FBECDBF09942A883988D5
:1014C00048885F846E847D848C849B84AA84B984DC
:1014D000C884DF80EE80FD800C811B81AA81B981E8
:1014E000CE0FD11D0FB6F894DEBF0FBECDBFED01FC
:0614F0000895F894FFCFFF
:1014F6006400640001000100102732008813000018
:1015060000030000000053005D00000052656420E7
:101516004C696E65202F2053686966742052504DC1
:101526000020202020205365743A20256400507244
:1015360065737320456E74657220746F20436F6EF9
:10154600742E00202020456E676167656D656E7498
:101556002052504D002020202050726F6772657314
:10156600732052617465002020202020205365746A
:101576003A20256425250020576973686572205036
:101586006572666F726D616E636500202020546F10
:1015960074616C204B6F6E74726F6C00202020207B
:1015A6002052504D3A25645450533A256600202067
:1015B600202044757479204379636C653A2025664A
:0215C600000023
:00000001FF
